:040000000C94003A22
:1074000011248FEF98E09EBF8DBF84B714BE81FF1B
:10741000C1C180916600863008F4B9C180916600D0
:1074200086508093660080E88093F20093E9909301
:10743000F2008093610091E0909361008093EE00F0
:1074400097E49093EE0086BF8CE486BF85E080933E
:10745000810082E08093C00088E18093C10090E1C8
:107460009093C400809360008DE080936000259A23
:1074700086E040E35CEF31E020E2509385004093EA
:10748000840036BBB09BFECF95B1922795B9A895E5
:10749000815099F700E010E0212C312C2101EE24DD
:1074A000E39432E0F32E43E0742E54EAC52E62EAF0
:1074B000D62E16C0823411F1853419F1853549F183
:1074C000863511F1843609F435C0843709F4B0C02B
:1074D000853709F402C1813529F171D180E15CD190
:1074E00062D1813439F75FD1C82F69D1C23871F0C8
:1074F000C13809F4FFC083E04FD1F0CF84E16BD1F4
:10750000EDCF85E068D1EACF84E065D180E044D159
:10751000E5CF49D1082F47D110E0182B000F111FDC
:107520004ED1DCCF88E1809360008CE080936000D6
:1075300046D1D4CF38D1C82F36D18C2E912C982C4F
:107540008824880E911C2FD1682E5401C0E0D1E010
:107550002AD1899321E0A21AB108D1F711BC12BD3A
:1075600082B586958695B201A101082E04C0769554
:107570006795579547950A94D2F740FD04C036E4C5
:10758000631609F4E7C01BD135E4631609F4C0C0E3
:1075900001151105A1F520910001309101013093F1
:1075A00085012093840180910201909103019093C1
:1075B00087018093860140911801509119015093E1
:1075C00089014093880140911A0150911B01509309
:1075D0008B0140938A0130931901209318019093F5
:1075E0001B0180931A014CE054E950930101409330
:1075F000000180E09AE39093030180930201802FC1
:1076000020E8200FE0E0F1E011BC908190BDE1BCEA
:10761000918190BDF1BC928190BD71BC938190BD70
:1076200081BDCFBADFBA34968C5F2813EDCF56CF29
:10763000BAD0882E912C982C8824B5D0880E911C15
:10764000B2D0C82FBCD0C53499F15401E8010AC0AA
:10765000809184019091850121969ED0F1E0AF1A2E
:10766000B108C1F12097A1F3C130D105D9F0C230E2
:10767000D10509F43AC0C330D10509F43EC0C83180
:10768000D10509F440C0C931D10509F458C0CA3147
:10769000D10509F45AC0CB31D10509F472C0FE01FD
:1076A0008491DACF8091840190918501892FD4CF84
:1076B000602E5401E801219661BCD2BDEFBA0000F2
:1076C000000080B569D0E1E0AE1AB1086394A1145E
:1076D000B10489F7080D191D01CF71D08EE15CD07E
:1076E00085E95AD08FE058D0F9CE809186019091EB
:1076F0008701B2CF85E050D0F1CE80918601909184
:107700008701892FA9CF8091880190918901A4CF09
:107710008114910409F4E2CE802F800E911EE0E0E6
:10772000F1E024E00F5F1F4F81BD12BD919190BD2C
:107730002FBBFFBA8F5F80169106A1F7CFCE809145
:10774000880190918901892F87CF80918A0190913A
:107750008B0182CF21E030E040E050E004C0220FF6
:10776000331F441F551F8A95D2F7222A332A442AF1
:10777000552A84E98FBB82E98FBB000000001FD02F
:1077800007CF80918A0190918B01892F65CF10924C
:10779000660049CE27D03DCE9091C00095FFFCCF2A
:1077A0008093C60008958091C00087FFFCCF809130
:1077B000C00084FD01C0A8958091C6000895F3DF44
:1077C000803239F088E1809360008DE08093600022
:1077D000FFCF84E1E1CFCF93C82FE5DFC150E9F7B8
:1077E000CF91EDCFE0E6F0E098E190831082282E73
:0677F000ECE0FF27099404
:0277FE00000584
:040000030000740085
:00000001FF
